{
        "contractName": "TokyoTower",
        "abi": [
                {
                        "inputs": [],
                        "stateMutability": "nonpayable",
                        "type": "constructor"
                },
                {
                        "anonymous": false,
                        "inputs": [
                                {
                                        "indexed": true,
                                        "internalType": "address",
                                        "name": "owner",
                                        "type": "address"
                                },
                                {
                                        "indexed": true,
                                        "internalType": "address",
                                        "name": "approved",
                                        "type": "address"
                                },
                                {
                                        "indexed": true,
                                        "internalType": "uint256",
                                        "name": "tokenId",
                                        "type": "uint256"
                                }
                        ],
                        "name": "Approval",
                        "type": "event"
                },
                {
                        "anonymous": false,
                        "inputs": [
                                {
                                        "indexed": true,
                                        "internalType": "address",
                                        "name": "owner",
                                        "type": "address"
                                },
                                {
                                        "indexed": true,
                                        "internalType": "address",
                                        "name": "operator",
                                        "type": "address"
                                },
                                {
                                        "indexed": false,
                                        "internalType": "bool",
                                        "name": "approved",
                                        "type": "bool"
                                }
                        ],
                        "name": "ApprovalForAll",
                        "type": "event"
                },
                {
                        "anonymous": false,
                        "inputs": [
                                {
                                        "indexed": true,
                                        "internalType": "address",
                                        "name": "previousOwner",
                                        "type": "address"
                                },
                                {
                                        "indexed": true,
                                        "internalType": "address",
                                        "name": "newOwner",
                                        "type": "address"
                                }
                        ],
                        "name": "OwnershipTransferred",
                        "type": "event"
                },
                {
                        "anonymous": false,
                        "inputs": [
                                {
                                        "indexed": true,
                                        "internalType": "address",
                                        "name": "from",
                                        "type": "address"
                                },
                                {
                                        "indexed": true,
                                        "internalType": "address",
                                        "name": "to",
                                        "type": "address"
                                },
                                {
                                        "indexed": true,
                                        "internalType": "uint256",
                                        "name": "tokenId",
                                        "type": "uint256"
                                }
                        ],
                        "name": "Transfer",
                        "type": "event"
                },
                {
                        "inputs": [
                                {
                                        "internalType": "address",
                                        "name": "to",
                                        "type": "address"
                                },
                                {
                                        "internalType": "uint256",
                                        "name": "tokenId",
                                        "type": "uint256"
                                }
                        ],
                        "name": "approve",
                        "outputs": [],
                        "stateMutability": "nonpayable",
                        "type": "function"
                },
                {
                        "inputs": [
                                {
                                        "internalType": "address",
                                        "name": "owner",
                                        "type": "address"
                                }
                        ],
                        "name": "balanceOf",
                        "outputs": [
                                {
                                        "internalType": "uint256",
                                        "name": "",
                                        "type": "uint256"
                                }
                        ],
                        "stateMutability": "view",
                        "type": "function",
                        "constant": true
                },
                {
                        "inputs": [
                                {
                                        "internalType": "uint256",
                                        "name": "tokenId",
                                        "type": "uint256"
                                }
                        ],
                        "name": "getApproved",
                        "outputs": [
                                {
                                        "internalType": "address",
                                        "name": "",
                                        "type": "address"
                                }
                        ],
                        "stateMutability": "view",
                        "type": "function",
                        "constant": true
                },
                {
                        "inputs": [
                                {
                                        "internalType": "address",
                                        "name": "owner",
                                        "type": "address"
                                },
                                {
                                        "internalType": "address",
                                        "name": "operator",
                                        "type": "address"
                                }
                        ],
                        "name": "isApprovedForAll",
                        "outputs": [
                                {
                                        "internalType": "bool",
                                        "name": "",
                                        "type": "bool"
                                }
                        ],
                        "stateMutability": "view",
                        "type": "function",
                        "constant": true
                },
                {
                        "inputs": [],
                        "name": "name",
                        "outputs": [
                                {
                                        "internalType": "string",
                                        "name": "",
                                        "type": "string"
                                }
                        ],
                        "stateMutability": "view",
                        "type": "function",
                        "constant": true
                },
                {
                        "inputs": [],
                        "name": "owner",
                        "outputs": [
                                {
                                        "internalType": "address",
                                        "name": "",
                                        "type": "address"
                                }
                        ],
                        "stateMutability": "view",
                        "type": "function",
                        "constant": true
                },
                {
                        "inputs": [
                                {
                                        "internalType": "uint256",
                                        "name": "tokenId",
                                        "type": "uint256"
                                }
                        ],
                        "name": "ownerOf",
                        "outputs": [
                                {
                                        "internalType": "address",
                                        "name": "",
                                        "type": "address"
                                }
                        ],
                        "stateMutability": "view",
                        "type": "function",
                        "constant": true
                },
                {
                        "inputs": [],
                        "name": "renounceOwnership",
                        "outputs": [],
                        "stateMutability": "nonpayable",
                        "type": "function"
                },
                {
                        "inputs": [
                                {
                                        "internalType": "address",
                                        "name": "from",
                                        "type": "address"
                                },
                                {
                                        "internalType": "address",
                                        "name": "to",
                                        "type": "address"
                                },
                                {
                                        "internalType": "uint256",
                                        "name": "tokenId",
                                        "type": "uint256"
                                }
                        ],
                        "name": "safeTransferFrom",
                        "outputs": [],
                        "stateMutability": "nonpayable",
                        "type": "function"
                },
                {
                        "inputs": [
                                {
                                        "internalType": "address",
                                        "name": "from",
                                        "type": "address"
                                },
                                {
                                        "internalType": "address",
                                        "name": "to",
                                        "type": "address"
                                },
                                {
                                        "internalType": "uint256",
                                        "name": "tokenId",
                                        "type": "uint256"
                                },
                                {
                                        "internalType": "bytes",
                                        "name": "_data",
                                        "type": "bytes"
                                }
                        ],
                        "name": "safeTransferFrom",
                        "outputs": [],
                        "stateMutability": "nonpayable",
                        "type": "function"
                },
                {
                        "inputs": [
                                {
                                        "internalType": "address",
                                        "name": "operator",
                                        "type": "address"
                                },
                                {
                                        "internalType": "bool",
                                        "name": "approved",
                                        "type": "bool"
                                }
                        ],
                        "name": "setApprovalForAll",
                        "outputs": [],
                        "stateMutability": "nonpayable",
                        "type": "function"
                },
                {
                        "inputs": [
                                {
                                        "internalType": "bytes4",
                                        "name": "interfaceId",
                                        "type": "bytes4"
                                }
                        ],
                        "name": "supportsInterface",
                        "outputs": [
                                {
                                        "internalType": "bool",
                                        "name": "",
                                        "type": "bool"
                                }
                        ],
                        "stateMutability": "view",
                        "type": "function",
                        "constant": true
                },
                {
                        "inputs": [],
                        "name": "symbol",
                        "outputs": [
                                {
                                        "internalType": "string",
                                        "name": "",
                                        "type": "string"
                                }
                        ],
                        "stateMutability": "view",
                        "type": "function",
                        "constant": true
                },
                {
                        "inputs": [
                                {
                                        "internalType": "uint256",
                                        "name": "index",
                                        "type": "uint256"
                                }
                        ],
                        "name": "tokenByIndex",
                        "outputs": [
                                {
                                        "internalType": "uint256",
                                        "name": "",
                                        "type": "uint256"
                                }
                        ],
                        "stateMutability": "view",
                        "type": "function",
                        "constant": true
                },
                {
                        "inputs": [
                                {
                                        "internalType": "address",
                                        "name": "owner",
                                        "type": "address"
                                },
                                {
                                        "internalType": "uint256",
                                        "name": "index",
                                        "type": "uint256"
                                }
                        ],
                        "name": "tokenOfOwnerByIndex",
                        "outputs": [
                                {
                                        "internalType": "uint256",
                                        "name": "",
                                        "type": "uint256"
                                }
                        ],
                        "stateMutability": "view",
                        "type": "function",
                        "constant": true
                },
                {
                        "inputs": [],
                        "name": "totalSupply",
                        "outputs": [
                                {
                                        "internalType": "uint256",
                                        "name": "",
                                        "type": "uint256"
                                }
                        ],
                        "stateMutability": "view",
                        "type": "function",
                        "constant": true
                },
                {
                        "inputs": [
                                {
                                        "internalType": "address",
                                        "name": "from",
                                        "type": "address"
                                },
                                {
                                        "internalType": "address",
                                        "name": "to",
                                        "type": "address"
                                },
                                {
                                        "internalType": "uint256",
                                        "name": "tokenId",
                                        "type": "uint256"
                                }
                        ],
                        "name": "transferFrom",
                        "outputs": [],
                        "stateMutability": "nonpayable",
                        "type": "function"
                },
                {
                        "inputs": [
                                {
                                        "internalType": "address",
                                        "name": "newOwner",
                                        "type": "address"
                                }
                        ],
                        "name": "transferOwnership",
                        "outputs": [],
                        "stateMutability": "nonpayable",
                        "type": "function"
                },
                {
                        "inputs": [
                                {
                                        "internalType": "address",
                                        "name": "to",
                                        "type": "address"
                                }
                        ],
                        "name": "mint",
                        "outputs": [],
                        "stateMutability": "nonpayable",
                        "type": "function"
                },
                {
                        "inputs": [
                                {
                                        "internalType": "uint256",
                                        "name": "tokenId",
                                        "type": "uint256"
                                }
                        ],
                        "name": "tokenURI",
                        "outputs": [
                                {
                                        "internalType": "string",
                                        "name": "",
                                        "type": "string"
                                }
                        ],
                        "stateMutability": "view",
                        "type": "function",
                        "constant": true
                },
                {
                        "inputs": [
                                {
                                        "internalType": "uint256",
                                        "name": "mod",
                                        "type": "uint256"
                                }
                        ],
                        "name": "rand",
                        "outputs": [
                                {
                                        "internalType": "uint256",
                                        "name": "result",
                                        "type": "uint256"
                                }
                        ],
                        "stateMutability": "view",
                        "type": "function",
                        "constant": true
                }
        ],
        "bytecode": "0x60806040526000600b553480156200001657600080fd5b506040518060400160405280600d81526020017f546f6b796f546f7765724e4654000000000000000000000000000000000000008152506040518060400160405280600581526020017f54544e465400000000000000000000000000000000000000000000000000000081525081600090805190602001906200009b929190620001ab565b508060019080519060200190620000b4929190620001ab565b505050620000d7620000cb620000dd60201b60201c565b620000e560201b60201c565b620002c0565b600033905090565b6000600a60009054906101000a900473ffffffffffffffffffffffffffffffffffffffff16905081600a60006101000a81548173ffffffffffffffffffffffffffffffffffffffff021916908373ffffffffffffffffffffffffffffffffffffffff1602179055508173ffffffffffffffffffffffffffffffffffffffff168173ffffffffffffffffffffffffffffffffffffffff167f8be0079c531659141344cd1fd0a4f28419497f9722a3daafe3b4186f6b6457e060405160405180910390a35050565b828054620001b9906200028a565b90600052602060002090601f016020900481019282620001dd576000855562000229565b82601f10620001f857805160ff191683800117855562000229565b8280016001018555821562000229579182015b82811115620002285782518255916020019190600101906200020b565b5b5090506200023891906200023c565b5090565b5b80821115620002575760008160009055506001016200023d565b5090565b7f4e487b7100000000000000000000000000000000000000000000000000000000600052602260045260246000fd5b60006002820490506001821680620002a357607f821691505b60208210811415620002ba57620002b96200025b565b5b50919050565b61367180620002d06000396000f3fe608060405234801561001057600080fd5b50600436106101375760003560e01c80636352211e116100b857806395d89b411161007c57806395d89b4114610360578063a22cb4651461037e578063b88d4fde1461039a578063c87b56dd146103b6578063e985e9c5146103e6578063f2fde38b1461041657610137565b80636352211e146102bc5780636a627842146102ec57806370a0823114610308578063715018a6146103385780638da5cb5b1461034257610137565b806323b872dd116100ff57806323b872dd146101f45780632530c905146102105780632f745c591461024057806342842e0e146102705780634f6ccce71461028c57610137565b806301ffc9a71461013c57806306fdde031461016c578063081812fc1461018a578063095ea7b3146101ba57806318160ddd146101d6575b600080fd5b61015660048036038101906101519190612128565b610432565b6040516101639190612170565b60405180910390f35b6101746104ac565b6040516101819190612224565b60405180910390f35b6101a4600480360381019061019f919061227c565b61053e565b6040516101b191906122ea565b60405180910390f35b6101d460048036038101906101cf9190612331565b6105c3565b005b6101de6106db565b6040516101eb9190612380565b60405180910390f35b61020e6004803603810190610209919061239b565b6106e8565b005b61022a6004803603810190610225919061227c565b610748565b6040516102379190612380565b60405180910390f35b61025a60048036038101906102559190612331565b6107ce565b6040516102679190612380565b60405180910390f35b61028a6004803603810190610285919061239b565b610873565b005b6102a660048036038101906102a1919061227c565b610893565b6040516102b39190612380565b60405180910390f35b6102d660048036038101906102d1919061227c565b610904565b6040516102e391906122ea565b60405180910390f35b610306600480360381019061030191906123ee565b6109b6565b005b610322600480360381019061031d91906123ee565b610b21565b60405161032f9190612380565b60405180910390f35b610340610bd9565b005b61034a610c61565b60405161035791906122ea565b60405180910390f35b610368610c8b565b6040516103759190612224565b60405180910390f35b61039860048036038101906103939190612447565b610d1d565b005b6103b460048036038101906103af91906125bc565b610d33565b005b6103d060048036038101906103cb919061227c565b610d95565b6040516103dd9190612224565b60405180910390f35b61040060048036038101906103fb919061263f565b610dd9565b60405161040d9190612170565b60405180910390f35b610430600480360381019061042b91906123ee565b610e6d565b005b60007f780e9d63000000000000000000000000000000000000000000000000000000007bffffffffffffffffffffffffffffffffffffffffffffffffffffffff1916827bffffffffffffffffffffffffffffffffffffffffffffffffffffffff191614806104a557506104a482610f65565b5b9050919050565b6060600080546104bb906126ae565b80601f01602080910402602001604051908101604052809291908181526020018280546104e7906126ae565b80156105345780601f1061050957610100808354040283529160200191610534565b820191906000526020600020905b81548152906001019060200180831161051757829003601f168201915b5050505050905090565b600061054982611047565b610588576040517f08c379a000000000000000000000000000000000000000000000000000000000815260040161057f90612752565b60405180910390fd5b6004600083815260200190815260200160002060009054906101000a900473ffffffffffffffffffffffffffffffffffffffff169050919050565b60006105ce82610904565b90508073ffffffffffffffffffffffffffffffffffffffff168373ffffffffffffffffffffffffffffffffffffffff16141561063f576040517f08c379a0000000000000000000000000000000000000000000000000000000008152600401610636906127e4565b60405180910390fd5b8073ffffffffffffffffffffffffffffffffffffffff1661065e6110b3565b73ffffffffffffffffffffffffffffffffffffffff16148061068d575061068c816106876110b3565b610dd9565b5b6106cc576040517f08c379a00000000000000000000000000000000000000000000000000000000081526004016106c390612876565b60405180910390fd5b6106d683836110bb565b505050565b6000600880549050905090565b6106f96106f36110b3565b82611174565b610738576040517f08c379a000000000000000000000000000000000000000000000000000000000815260040161072f90612908565b60405180910390fd5b610743838383611252565b505050565b60005b6001156107c85760006001834233600b5460405160200161076e93929190612991565b6040516020818303038152906040528051906020012060001c61079191906129fd565b61079b9190612a5d565b90506000600c60008381526020019081526020016000205414156107c257809150506107c9565b5061074b565b5b919050565b60006107d983610b21565b821061081a576040517f08c379a000000000000000000000000000000000000000000000000000000000815260040161081190612b25565b60405180910390fd5b600660008473ffffffffffffffffffffffffffffffffffffffff1673ffffffffffffffffffffffffffffffffffffffff168152602001908152602001600020600083815260200190815260200160002054905092915050565b61088e83838360405180602001604052806000815250610d33565b505050565b600061089d6106db565b82106108de576040517f08c379a00000000000000000000000000000000000000000000000000000000081526004016108d590612bb7565b60405180910390fd5b600882815481106108f2576108f1612bd7565b5b90600052602060002001549050919050565b6000806002600084815260200190815260200160002060009054906101000a900473ffffffffffffffffffffffffffffffffffffffff169050600073ffffffffffffffffffffffffffffffffffffffff168173ffffffffffffffffffffffffffffffffffffffff1614156109ad576040517f08c379a00000000000000000000000000000000000000000000000000000000081526004016109a490612c78565b60405180910390fd5b80915050919050565b60006109c133610b21565b14610a01576040517f08c379a00000000000000000000000000000000000000000000000000000000081526004016109f890612ce4565b60405180910390fd5b6064610a0b6106db565b10610a4b576040517f08c379a0000000000000000000000000000000000000000000000000000000008152600401610a4290612d50565b60405180910390fd5b60006001610a576106db565b610a619190612a5d565b905060003073ffffffffffffffffffffffffffffffffffffffff16632530c90560646040518263ffffffff1660e01b8152600401610a9f9190612db5565b602060405180830381865afa158015610abc573d6000803e3d6000fd5b505050506040513d601f19601f82011682018060405250810190610ae09190612de5565b9050600b6000815480929190610af590612e12565b919050555080600c600084815260200190815260200160002081905550610b1c83836114b9565b505050565b60008073ffffffffffffffffffffffffffffffffffffffff168273ffffffffffffffffffffffffffffffffffffffff161415610b92576040517f08c379a0000000000000000000000000000000000000000000000000000000008152600401610b8990612ecd565b60405180910390fd5b600360008373ffffffffffffffffffffffffffffffffffffffff1673ffffffffffffffffffffffffffffffffffffffff168152602001908152602001600020549050919050565b610be16110b3565b73ffffffffffffffffffffffffffffffffffffffff16610bff610c61565b73ffffffffffffffffffffffffffffffffffffffff1614610c55576040517f08c379a0000000000000000000000000000000000000000000000000000000008152600401610c4c90612f39565b60405180910390fd5b610c5f6000611693565b565b6000600a60009054906101000a900473ffffffffffffffffffffffffffffffffffffffff16905090565b606060018054610c9a906126ae565b80601f0160208091040260200160405190810160405280929190818152602001828054610cc6906126ae565b8015610d135780601f10610ce857610100808354040283529160200191610d13565b820191906000526020600020905b815481529060010190602001808311610cf657829003601f168201915b5050505050905090565b610d2f610d286110b3565b8383611759565b5050565b610d44610d3e6110b3565b83611174565b610d83576040517f08c379a0000000000000000000000000000000000000000000000000000000008152600401610d7a90612908565b60405180910390fd5b610d8f848484846118c6565b50505050565b6060610db3600c600084815260200190815260200160002054611922565b604051602001610dc39190613079565b6040516020818303038152906040529050919050565b6000600560008473ffffffffffffffffffffffffffffffffffffffff1673ffffffffffffffffffffffffffffffffffffffff16815260200190815260200160002060008373ffffffffffffffffffffffffffffffffffffffff1673ffffffffffffffffffffffffffffffffffffffff16815260200190815260200160002060009054906101000a900460ff16905092915050565b610e756110b3565b73ffffffffffffffffffffffffffffffffffffffff16610e93610c61565b73ffffffffffffffffffffffffffffffffffffffff1614610ee9576040517f08c379a0000000000000000000000000000000000000000000000000000000008152600401610ee090612f39565b60405180910390fd5b600073ffffffffffffffffffffffffffffffffffffffff168173ffffffffffffffffffffffffffffffffffffffff161415610f59576040517f08c379a0000000000000000000000000000000000000000000000000000000008152600401610f5090613118565b60405180910390fd5b610f6281611693565b50565b60007f80ac58cd000000000000000000000000000000000000000000000000000000007bffffffffffffffffffffffffffffffffffffffffffffffffffffffff1916827bffffffffffffffffffffffffffffffffffffffffffffffffffffffff1916148061103057507f5b5e139f000000000000000000000000000000000000000000000000000000007bffffffffffffffffffffffffffffffffffffffffffffffffffffffff1916827bffffffffffffffffffffffffffffffffffffffffffffffffffffffff1916145b80611040575061103f82611a83565b5b9050919050565b60008073ffffffffffffffffffffffffffffffffffffffff166002600084815260200190815260200160002060009054906101000a900473ffffffffffffffffffffffffffffffffffffffff1673ffffffffffffffffffffffffffffffffffffffff1614159050919050565b600033905090565b816004600083815260200190815260200160002060006101000a81548173ffffffffffffffffffffffffffffffffffffffff021916908373ffffffffffffffffffffffffffffffffffffffff160217905550808273ffffffffffffffffffffffffffffffffffffffff1661112e83610904565b73ffffffffffffffffffffffffffffffffffffffff167f8c5be1e5ebec7d5bd14f71427d1e84f3dd0314c0f7b2291e5b200ac8c7c3b92560405160405180910390a45050565b600061117f82611047565b6111be576040517f08c379a00000000000000000000000000000000000000000000000000000000081526004016111b5906131aa565b60405180910390fd5b60006111c983610904565b90508073ffffffffffffffffffffffffffffffffffffffff168473ffffffffffffffffffffffffffffffffffffffff16148061120b575061120a8185610dd9565b5b8061124957508373ffffffffffffffffffffffffffffffffffffffff166112318461053e565b73ffffffffffffffffffffffffffffffffffffffff16145b91505092915050565b8273ffffffffffffffffffffffffffffffffffffffff1661127282610904565b73ffffffffffffffffffffffffffffffffffffffff16146112c8576040517f08c379a00000000000000000000000000000000000000000000000000000000081526004016112bf9061323c565b60405180910390fd5b600073ffffffffffffffffffffffffffffffffffffffff168273ffffffffffffffffffffffffffffffffffffffff161415611338576040517f08c379a000000000000000000000000000000000000000000000000000000000815260040161132f906132ce565b60405180910390fd5b611343838383611aed565b61134e6000826110bb565b6001600360008573ffffffffffffffffffffffffffffffffffffffff1673ffffffffffffffffffffffffffffffffffffffff168152602001908152602001600020600082825461139e91906132ee565b925050819055506001600360008473ffffffffffffffffffffffffffffffffffffffff1673ffffffffffffffffffffffffffffffffffffffff16815260200190815260200160002060008282546113f59190612a5d565b92505081905550816002600083815260200190815260200160002060006101000a81548173ffffffffffffffffffffffffffffffffffffffff021916908373ffffffffffffffffffffffffffffffffffffffff160217905550808273ffffffffffffffffffffffffffffffffffffffff168473ffffffffffffffffffffffffffffffffffffffff167fddf252ad1be2c89b69c2b068fc378daa952ba7f163c4a11628f55a4df523b3ef60405160405180910390a46114b4838383611c01565b505050565b600073ffffffffffffffffffffffffffffffffffffffff168273ffffffffffffffffffffffffffffffffffffffff161415611529576040517f08c379a00000000000000000000000000000000000000000000000000000000081526004016115209061336e565b60405180910390fd5b61153281611047565b15611572576040517f08c379a0000000000000000000000000000000000000000000000000000000008152600401611569906133da565b60405180910390fd5b61157e60008383611aed565b6001600360008473ffffffffffffffffffffffffffffffffffffffff1673ffffffffffffffffffffffffffffffffffffffff16815260200190815260200160002060008282546115ce9190612a5d565b92505081905550816002600083815260200190815260200160002060006101000a81548173ffffffffffffffffffffffffffffffffffffffff021916908373ffffffffffffffffffffffffffffffffffffffff160217905550808273ffffffffffffffffffffffffffffffffffffffff16600073ffffffffffffffffffffffffffffffffffffffff167fddf252ad1be2c89b69c2b068fc378daa952ba7f163c4a11628f55a4df523b3ef60405160405180910390a461168f60008383611c01565b5050565b6000600a60009054906101000a900473ffffffffffffffffffffffffffffffffffffffff16905081600a60006101000a81548173ffffffffffffffffffffffffffffffffffffffff021916908373ffffffffffffffffffffffffffffffffffffffff1602179055508173ffffffffffffffffffffffffffffffffffffffff168173ffffffffffffffffffffffffffffffffffffffff167f8be0079c531659141344cd1fd0a4f28419497f9722a3daafe3b4186f6b6457e060405160405180910390a35050565b8173ffffffffffffffffffffffffffffffffffffffff168373ffffffffffffffffffffffffffffffffffffffff1614156117c8576040517f08c379a00000000000000000000000000000000000000000000000000000000081526004016117bf90613446565b60405180910390fd5b80600560008573ffffffffffffffffffffffffffffffffffffffff1673ffffffffffffffffffffffffffffffffffffffff16815260200190815260200160002060008473ffffffffffffffffffffffffffffffffffffffff1673ffffffffffffffffffffffffffffffffffffffff16815260200190815260200160002060006101000a81548160ff0219169083151502179055508173ffffffffffffffffffffffffffffffffffffffff168373ffffffffffffffffffffffffffffffffffffffff167f17307eab39ab6107e8899845ad3d59bd9653f200f220920489ca2b5937696c31836040516118b99190612170565b60405180910390a3505050565b6118d1848484611252565b6118dd84848484611c06565b61191c576040517f08c379a0000000000000000000000000000000000000000000000000000000008152600401611913906134d8565b60405180910390fd5b50505050565b6060600082141561196a576040518060400160405280600181526020017f30000000000000000000000000000000000000000000000000000000000000008152509050611a7e565b600082905060005b6000821461199c57808061198590612e12565b915050600a8261199591906134f8565b9150611972565b60008167ffffffffffffffff8111156119b8576119b7612491565b5b6040519080825280601f01601f1916602001820160405280156119ea5781602001600182028036833780820191505090505b5090505b60008514611a7757600182611a0391906132ee565b9150600a85611a1291906129fd565b6030611a1e9190612a5d565b60f81b818381518110611a3457611a33612bd7565b5b60200101907effffffffffffffffffffffffffffffffffffffffffffffffffffffffffffff1916908160001a905350600a85611a7091906134f8565b94506119ee565b8093505050505b919050565b60007f01ffc9a7000000000000000000000000000000000000000000000000000000007bffffffffffffffffffffffffffffffffffffffffffffffffffffffff1916827bffffffffffffffffffffffffffffffffffffffffffffffffffffffff1916149050919050565b611af8838383611d8e565b600073ffffffffffffffffffffffffffffffffffffffff168373ffffffffffffffffffffffffffffffffffffffff161415611b3b57611b3681611d93565b611b7a565b8173ffffffffffffffffffffffffffffffffffffffff168373ffffffffffffffffffffffffffffffffffffffff1614611b7957611b788382611ddc565b5b5b600073ffffffffffffffffffffffffffffffffffffffff168273ffffffffffffffffffffffffffffffffffffffff161415611bbd57611bb881611f49565b611bfc565b8273ffffffffffffffffffffffffffffffffffffffff168273ffffffffffffffffffffffffffffffffffffffff1614611bfb57611bfa828261201a565b5b5b505050565b505050565b6000611c278473ffffffffffffffffffffffffffffffffffffffff16612099565b15611d81578373ffffffffffffffffffffffffffffffffffffffff1663150b7a02611c506110b3565b8786866040518563ffffffff1660e01b8152600401611c72949392919061357e565b6020604051808303816000875af1925050508015611cae57506040513d601f19601f82011682018060405250810190611cab91906135df565b60015b611d31573d8060008114611cde576040519150601f19603f3d011682016040523d82523d6000602084013e611ce3565b606091505b50600081511415611d29576040517f08c379a0000000000000000000000000000000000000000000000000000000008152600401611d20906134d8565b60405180910390fd5b805181602001fd5b63150b7a0260e01b7bffffffffffffffffffffffffffffffffffffffffffffffffffffffff1916817bffffffffffffffffffffffffffffffffffffffffffffffffffffffff191614915050611d86565b600190505b949350505050565b505050565b6008805490506009600083815260200190815260200160002081905550600881908060018154018082558091505060019003906000526020600020016000909190919091505550565b60006001611de984610b21565b611df391906132ee565b9050600060076000848152602001908152602001600020549050818114611ed8576000600660008673ffffffffffffffffffffffffffffffffffffffff1673ffffffffffffffffffffffffffffffffffffffff168152602001908152602001600020600084815260200190815260200160002054905080600660008773ffffffffffffffffffffffffffffffffffffffff1673ffffffffffffffffffffffffffffffffffffffff168152602001908152602001600020600084815260200190815260200160002081905550816007600083815260200190815260200160002081905550505b6007600084815260200190815260200160002060009055600660008573ffffffffffffffffffffffffffffffffffffffff1673ffffffffffffffffffffffffffffffffffffffff16815260200190815260200160002060008381526020019081526020016000206000905550505050565b60006001600880549050611f5d91906132ee565b9050600060096000848152602001908152602001600020549050600060088381548110611f8d57611f8c612bd7565b5b906000526020600020015490508060088381548110611faf57611fae612bd7565b5b906000526020600020018190555081600960008381526020019081526020016000208190555060096000858152602001908152602001600020600090556008805480611ffe57611ffd61360c565b5b6001900381819060005260206000200160009055905550505050565b600061202583610b21565b905081600660008573ffffffffffffffffffffffffffffffffffffffff1673ffffffffffffffffffffffffffffffffffffffff168152602001908152602001600020600083815260200190815260200160002081905550806007600084815260200190815260200160002081905550505050565b6000808273ffffffffffffffffffffffffffffffffffffffff163b119050919050565b6000604051905090565b600080fd5b600080fd5b60007fffffffff0000000000000000000000000000000000000000000000000000000082169050919050565b612105816120d0565b811461211057600080fd5b50565b600081359050612122816120fc565b92915050565b60006020828403121561213e5761213d6120c6565b5b600061214c84828501612113565b91505092915050565b60008115159050919050565b61216a81612155565b82525050565b60006020820190506121856000830184612161565b92915050565b600081519050919050565b600082825260208201905092915050565b60005b838110156121c55780820151818401526020810190506121aa565b838111156121d4576000848401525b50505050565b6000601f19601f8301169050919050565b60006121f68261218b565b6122008185612196565b93506122108185602086016121a7565b612219816121da565b840191505092915050565b6000602082019050818103600083015261223e81846121eb565b905092915050565b6000819050919050565b61225981612246565b811461226457600080fd5b50565b60008135905061227681612250565b92915050565b600060208284031215612292576122916120c6565b5b60006122a084828501612267565b91505092915050565b600073ffffffffffffffffffffffffffffffffffffffff82169050919050565b60006122d4826122a9565b9050919050565b6122e4816122c9565b82525050565b60006020820190506122ff60008301846122db565b92915050565b61230e816122c9565b811461231957600080fd5b50565b60008135905061232b81612305565b92915050565b60008060408385031215612348576123476120c6565b5b60006123568582860161231c565b925050602061236785828601612267565b9150509250929050565b61237a81612246565b82525050565b60006020820190506123956000830184612371565b92915050565b6000806000606084860312156123b4576123b36120c6565b5b60006123c28682870161231c565b93505060206123d38682870161231c565b92505060406123e486828701612267565b9150509250925092565b600060208284031215612404576124036120c6565b5b60006124128482850161231c565b91505092915050565b61242481612155565b811461242f57600080fd5b50565b6000813590506124418161241b565b92915050565b6000806040838503121561245e5761245d6120c6565b5b600061246c8582860161231c565b925050602061247d85828601612432565b9150509250929050565b600080fd5b600080fd5b7f4e487b7100000000000000000000000000000000000000000000000000000000600052604160045260246000fd5b6124c9826121da565b810181811067ffffffffffffffff821117156124e8576124e7612491565b5b80604052505050565b60006124fb6120bc565b905061250782826124c0565b919050565b600067ffffffffffffffff82111561252757612526612491565b5b612530826121da565b9050602081019050919050565b82818337600083830152505050565b600061255f61255a8461250c565b6124f1565b90508281526020810184848401111561257b5761257a61248c565b5b61258684828561253d565b509392505050565b600082601f8301126125a3576125a2612487565b5b81356125b384826020860161254c565b91505092915050565b600080600080608085870312156125d6576125d56120c6565b5b60006125e48782880161231c565b94505060206125f58782880161231c565b935050604061260687828801612267565b925050606085013567ffffffffffffffff811115612627576126266120cb565b5b6126338782880161258e565b91505092959194509250565b60008060408385031215612656576126556120c6565b5b60006126648582860161231c565b92505060206126758582860161231c565b9150509250929050565b7f4e487b7100000000000000000000000000000000000000000000000000000000600052602260045260246000fd5b600060028204905060018216806126c657607f821691505b602082108114156126da576126d961267f565b5b50919050565b7f4552433732313a20617070726f76656420717565727920666f72206e6f6e657860008201527f697374656e7420746f6b656e0000000000000000000000000000000000000000602082015250565b600061273c602c83612196565b9150612747826126e0565b604082019050919050565b6000602082019050818103600083015261276b8161272f565b9050919050565b7f4552433732313a20617070726f76616c20746f2063757272656e74206f776e6560008201527f7200000000000000000000000000000000000000000000000000000000000000602082015250565b60006127ce602183612196565b91506127d982612772565b604082019050919050565b600060208201905081810360008301526127fd816127c1565b9050919050565b7f4552433732313a20617070726f76652063616c6c6572206973206e6f74206f7760008201527f6e6572206e6f7220617070726f76656420666f7220616c6c0000000000000000602082015250565b6000612860603883612196565b915061286b82612804565b604082019050919050565b6000602082019050818103600083015261288f81612853565b9050919050565b7f4552433732313a207472616e736665722063616c6c6572206973206e6f74206f60008201527f776e6572206e6f7220617070726f766564000000000000000000000000000000602082015250565b60006128f2603183612196565b91506128fd82612896565b604082019050919050565b60006020820190508181036000830152612921816128e5565b9050919050565b6000819050919050565b61294361293e82612246565b612928565b82525050565b60008160601b9050919050565b600061296182612949565b9050919050565b600061297382612956565b9050919050565b61298b612986826122c9565b612968565b82525050565b600061299d8286612932565b6020820191506129ad828561297a565b6014820191506129bd8284612932565b602082019150819050949350505050565b7f4e487b7100000000000000000000000000000000000000000000000000000000600052601260045260246000fd5b6000612a0882612246565b9150612a1383612246565b925082612a2357612a226129ce565b5b828206905092915050565b7f4e487b7100000000000000000000000000000000000000000000000000000000600052601160045260246000fd5b6000612a6882612246565b9150612a7383612246565b9250827fffffffffffffffffffffffffffffffffffffffffffffffffffffffffffffffff03821115612aa857612aa7612a2e565b5b828201905092915050565b7f455243373231456e756d657261626c653a206f776e657220696e646578206f7560008201527f74206f6620626f756e6473000000000000000000000000000000000000000000602082015250565b6000612b0f602b83612196565b9150612b1a82612ab3565b604082019050919050565b60006020820190508181036000830152612b3e81612b02565b9050919050565b7f455243373231456e756d657261626c653a20676c6f62616c20696e646578206f60008201527f7574206f6620626f756e64730000000000000000000000000000000000000000602082015250565b6000612ba1602c83612196565b9150612bac82612b45565b604082019050919050565b60006020820190508181036000830152612bd081612b94565b9050919050565b7f4e487b7100000000000000000000000000000000000000000000000000000000600052603260045260246000fd5b7f4552433732313a206f776e657220717565727920666f72206e6f6e657869737460008201527f656e7420746f6b656e0000000000000000000000000000000000000000000000602082015250565b6000612c62602983612196565b9150612c6d82612c06565b604082019050919050565b60006020820190508181036000830152612c9181612c55565b9050919050565b7f6f6e6520666f7220656163682e00000000000000000000000000000000000000600082015250565b6000612cce600d83612196565b9150612cd982612c98565b602082019050919050565b60006020820190508181036000830152612cfd81612cc1565b9050919050565b7f416c6c204e46542061726520616c7265616479206d696e7465642e0000000000600082015250565b6000612d3a601b83612196565b9150612d4582612d04565b602082019050919050565b60006020820190508181036000830152612d6981612d2d565b9050919050565b6000819050919050565b6000819050919050565b6000612d9f612d9a612d9584612d70565b612d7a565b612246565b9050919050565b612daf81612d84565b82525050565b6000602082019050612dca6000830184612da6565b92915050565b600081519050612ddf81612250565b92915050565b600060208284031215612dfb57612dfa6120c6565b5b6000612e0984828501612dd0565b91505092915050565b6000612e1d82612246565b91507fffffffffffffffffffffffffffffffffffffffffffffffffffffffffffffffff821415612e5057612e4f612a2e565b5b600182019050919050565b7f4552433732313a2062616c616e636520717565727920666f7220746865207a6560008201527f726f206164647265737300000000000000000000000000000000000000000000602082015250565b6000612eb7602a83612196565b9150612ec282612e5b565b604082019050919050565b60006020820190508181036000830152612ee681612eaa565b9050919050565b7f4f776e61626c653a2063616c6c6572206973206e6f7420746865206f776e6572600082015250565b6000612f23602083612196565b9150612f2e82612eed565b602082019050919050565b60006020820190508181036000830152612f5281612f16565b9050919050565b600081905092915050565b7f68747470733a2f2f676174657761792e70696e6174612e636c6f75642f69706660008201527f732f516d5179315970324e4a6959354d62796161357a766b35334b626f316a7660208201527f59666956534a66334e3436474a6336772f000000000000000000000000000000604082015250565b6000612fe6605183612f59565b9150612ff182612f64565b605182019050919050565b60006130078261218b565b6130118185612f59565b93506130218185602086016121a7565b80840191505092915050565b7f2e6a736f6e000000000000000000000000000000000000000000000000000000600082015250565b6000613063600583612f59565b915061306e8261302d565b600582019050919050565b600061308482612fd9565b91506130908284612ffc565b915061309b82613056565b915081905092915050565b7f4f776e61626c653a206e6577206f776e657220697320746865207a65726f206160008201527f6464726573730000000000000000000000000000000000000000000000000000602082015250565b6000613102602683612196565b915061310d826130a6565b604082019050919050565b60006020820190508181036000830152613131816130f5565b9050919050565b7f4552433732313a206f70657261746f7220717565727920666f72206e6f6e657860008201527f697374656e7420746f6b656e0000000000000000000000000000000000000000602082015250565b6000613194602c83612196565b915061319f82613138565b604082019050919050565b600060208201905081810360008301526131c381613187565b9050919050565b7f4552433732313a207472616e736665722066726f6d20696e636f72726563742060008201527f6f776e6572000000000000000000000000000000000000000000000000000000602082015250565b6000613226602583612196565b9150613231826131ca565b604082019050919050565b6000602082019050818103600083015261325581613219565b9050919050565b7f4552433732313a207472616e7366657220746f20746865207a65726f2061646460008201527f7265737300000000000000000000000000000000000000000000000000000000602082015250565b60006132b8602483612196565b91506132c38261325c565b604082019050919050565b600060208201905081810360008301526132e7816132ab565b9050919050565b60006132f982612246565b915061330483612246565b92508282101561331757613316612a2e565b5b828203905092915050565b7f4552433732313a206d696e7420746f20746865207a65726f2061646472657373600082015250565b6000613358602083612196565b915061336382613322565b602082019050919050565b600060208201905081810360008301526133878161334b565b9050919050565b7f4552433732313a20746f6b656e20616c7265616479206d696e74656400000000600082015250565b60006133c4601c83612196565b91506133cf8261338e565b602082019050919050565b600060208201905081810360008301526133f3816133b7565b9050919050565b7f4552433732313a20617070726f766520746f2063616c6c657200000000000000600082015250565b6000613430601983612196565b915061343b826133fa565b602082019050919050565b6000602082019050818103600083015261345f81613423565b9050919050565b7f4552433732313a207472616e7366657220746f206e6f6e20455243373231526560008201527f63656976657220696d706c656d656e7465720000000000000000000000000000602082015250565b60006134c2603283612196565b91506134cd82613466565b604082019050919050565b600060208201905081810360008301526134f1816134b5565b9050919050565b600061350382612246565b915061350e83612246565b92508261351e5761351d6129ce565b5b828204905092915050565b600081519050919050565b600082825260208201905092915050565b600061355082613529565b61355a8185613534565b935061356a8185602086016121a7565b613573816121da565b840191505092915050565b600060808201905061359360008301876122db565b6135a060208301866122db565b6135ad6040830185612371565b81810360608301526135bf8184613545565b905095945050505050565b6000815190506135d9816120fc565b92915050565b6000602082840312156135f5576135f46120c6565b5b6000613603848285016135ca565b91505092915050565b7f4e487b7100000000000000000000000000000000000000000000000000000000600052603160045260246000fdfea2646970667358221220e7e13fa99721279dcab9f643ba0858e6d8e3c7d8b29f643548d39578d1462c9864736f6c634300080c0033",
        "immutableReferences": {},
        "source": "// version\npragma solidity >=0.4.22 <0.9.0;\n\nimport \"@openzeppelin/contracts/token/ERC721/ERC721.sol\";\nimport \"@openzeppelin/contracts/token/ERC721/extensions/ERC721Enumerable.sol\";\nimport \"@openzeppelin/contracts/access/Ownable.sol\";\n\n\ncontract TokyoTower is ERC721Enumerable, Ownable {\n  using Strings for uint256;\n\n  uint256 randNonce = 0;\n\n  mapping(uint256 => uint256) private _metadata;\n\n  constructor() ERC721(\"TokyoTowerNFT\", \"TTNFT\") {}\n\n  function mint(address to) public virtual {\n    require(balanceOf(msg.sender) == 0, \"one for each.\");\n    require(totalSupply() < 100, \"All NFT are already minted.\") ;\n    \n    // tokneIDmetadataID\n    uint256 tokenId = totalSupply() + 1;\n    uint256 metadataId = this.rand(100);\n    randNonce ++;\n    \n    //metadataIdtokenId\n    _metadata[tokenId] = metadataId;\n\n    _mint(to, tokenId);\n  }\n\n  function tokenURI(uint256 tokenId) public view virtual override returns (string memory) {\n    return string(abi.encodePacked(\"https://gateway.pinata.cloud/ipfs/QmQy1Yp2NJiY5Mbyaa5zvk53Kbo1jvYfiVSJf3N46GJc6w/\", _metadata[tokenId].toString(), \".json\"));\n  }\n\n  function rand(uint256 mod) external view returns (uint256 result) {\n\n    // metadataIDreturn\n    while(true){\n      uint _number = uint256(keccak256(abi.encodePacked(block.timestamp, msg.sender, randNonce))) % mod + 1;\n      if (_metadata[_number] == 0) {\n        return _number;\n      } else {\n        continue;\n      }\n    } \n  }\n\n}\n",
        "sourcePath": "/Users/kotaroiida1/Development/geonft/backend/contracts/TokyoTower.sol",
        "compiler": {
                "name": "solc",
                "version": "0.8.12+commit.f00d7308.Emscripten.clang"
        },
        "schemaVersion": "3.4.7",
        "updatedAt": "2022-07-02T09:01:41.819Z",
        "networkType": "ethereum",
        "devdoc": {
                "kind": "dev",
                "methods": {
                        "approve(address,uint256)": {
                                "details": "See {IERC721-approve}."
                        },
                        "balanceOf(address)": {
                                "details": "See {IERC721-balanceOf}."
                        },
                        "getApproved(uint256)": {
                                "details": "See {IERC721-getApproved}."
                        },
                        "isApprovedForAll(address,address)": {
                                "details": "See {IERC721-isApprovedForAll}."
                        },
                        "name()": {
                                "details": "See {IERC721Metadata-name}."
                        },
                        "owner()": {
                                "details": "Returns the address of the current owner."
                        },
                        "ownerOf(uint256)": {
                                "details": "See {IERC721-ownerOf}."
                        },
                        "renounceOwnership()": {
                                "details": "Leaves the contract without owner. It will not be possible to call `onlyOwner` functions anymore. Can only be called by the current owner. NOTE: Renouncing ownership will leave the contract without an owner, thereby removing any functionality that is only available to the owner."
                        },
                        "safeTransferFrom(address,address,uint256)": {
                                "details": "See {IERC721-safeTransferFrom}."
                        },
                        "safeTransferFrom(address,address,uint256,bytes)": {
                                "details": "See {IERC721-safeTransferFrom}."
                        },
                        "setApprovalForAll(address,bool)": {
                                "details": "See {IERC721-setApprovalForAll}."
                        },
                        "supportsInterface(bytes4)": {
                                "details": "See {IERC165-supportsInterface}."
                        },
                        "symbol()": {
                                "details": "See {IERC721Metadata-symbol}."
                        },
                        "tokenByIndex(uint256)": {
                                "details": "See {IERC721Enumerable-tokenByIndex}."
                        },
                        "tokenOfOwnerByIndex(address,uint256)": {
                                "details": "See {IERC721Enumerable-tokenOfOwnerByIndex}."
                        },
                        "tokenURI(uint256)": {
                                "details": "See {IERC721Metadata-tokenURI}."
                        },
                        "totalSupply()": {
                                "details": "See {IERC721Enumerable-totalSupply}."
                        },
                        "transferFrom(address,address,uint256)": {
                                "details": "See {IERC721-transferFrom}."
                        },
                        "transferOwnership(address)": {
                                "details": "Transfers ownership of the contract to a new account (`newOwner`). Can only be called by the current owner."
                        }
                },
                "version": 1
        },
        "userdoc": {
                "kind": "user",
                "methods": {},
                "version": 1
        }
}